:100000000C943A000C94D50B0C94D50B0C94D50B96
:100010000C94D50B0C94D50B0C94D50B0C94D50BE0
:100020000C94D50B0C94D50B0C94D50B0C94D50BD0
:100030000C94D50B0C94D50B0C94D50B0C94D50BC0
:100040000C94D50B0C94D50B0C94D50B0C94D50BB0
:100050000C94D50B0C94D50B0C94D50B0C94D50BA0
:100060000C94D50B0C94D50B010001028001020108
:100070000C0017B811241FBECFEFD8E0DEBFCDBFF4
:10008000E8E6F0E040E017C0B591A59135912591E3
:10009000059107FD0CC095918591EF01F92FE82F8F
:1000A00005900D92A217B307D9F7FE0104C01D9267
:1000B000A217B307E1F7E437F40731F70E94B90A52
:0800C0000C94B90BF894FFCF7A
:1000C80025640028612A62292B287E65293D006164
:1000D8002B632B207E653D00612B2028637C6429DF
:1000E8003D00622B2028637C64293D004D4F444528
:1000F8003A2030004D4F44453A2031004D4F444599
:100108003A2032004D4F44453A2033004D4F444584
:100118003A2034004D4F44453A20350057454C436A
:040128004F4D4500F2
:10012C0068076C094C836A9074A07AC00080688858
:06013C0000846C820081CA
:07014200286E756C6C2900AA
:06014900286E696C29001C
:100150002F923F924F926F927F928F929F92AF9287
:10016000BF92CF92DF92EF92FF920F931F93CF93A4
:10017000DF93CDB7DEB72E970FB6F894DEBF0FBE74
:10018000CDBF4C016B0138011A8219828FEF9FEFAE
:100190009C838B831E821D8258874F833A872987D1
:1001A000A12CB12CD6012D913D914C912A0D3B1DD6
:1001B000411DB7FC4A95F901849147FD8081811169
:1001C00016C0F601208331834283F901849147FDF3
:1001D0008081853209F00FC21901442EFFEF2F1ADA
:1001E0003F0A4F0AD6012D923D924C921BC0853298
:1001F00041F3B401082E000C990B0E942F084FEF19
:10020000A41AB40ACFCF2C32DCF02D3229F5298183
:100210003A8121603A8329830196A11DF6018083EA
:100220009183A283F60180819181A281FC012491B6
:10023000A7FD20812B3239F729813A812460EACF4A
:10024000203221F429813A812860E4CF233251F40D
:1002500029813A812061DECF203321F429813A813E
:100260002260D8CFB701C6010E94D5099E838D8335
:1002700097FF0BC029813A81F1E02F273A83298328
:100280009195819591099E838D8389819A8180FFC3
:1002900003C08D7F9A838983F60180819181A28139
:1002A000FC012491A7FD20812E3261F40196A11D4D
:1002B000F60180839183A283B701C6010E94D5090C
:1002C0009C838B83C6010E940107182FD6012C91B5
:1002D00011968C91119712969C91E22FF82F849190
:1002E00097FD8081082E000C990B0E94CD0B89365A
:1002F00009F44AC084F4833609F419C134F4853210
:1003000009F445C18136E1F050C18436E9F18836FF
:100310000CF4E9C04AC1803709F4B0C03CF48E3611
:1003200009F4D6C08F3609F46DC03FC1853709F492
:100330004AC0883709F485C0833709F036C10DC13A
:10034000612F70E0A701CE010B960E940000892B5F
:1003500009F448C1F60180819181A2819C014A2F54
:100360002F5F3F4F4F4F208331834283FC01249105
:10037000A7FD2081AE01455F5F4FBE016F5F7F4FDC
:10038000C4010E9400002BC1612F70E0970141E081
:1003900050E0CE010B960E94E404892B09F422C19F
:1003A000F60180819181A2810196A11D80839183B4
:1003B000A283AE01455F5F4FBE016F5F7F4FC401F7
:1003C0000E9401040CC1612F70E0970140E050E0F1
:1003D000CE010B960E94E404892B09F403C1F601B7
:1003E00080819181A2810196A11D80839183A28346
:1003F000AE01455F5F4FBE016F5F7F4FC4010E943A
:100400005009EDC0612F70E0970140E050E0CE014F
:100410000B960E94E404892B09F4E4C0F601808164
:100420009181A2810196A11D80839183A283AE0157
:10043000455F5F4FBE016F5F7F4FC4010E94B605ED
:10044000CEC0612F70E0970140E050E0CE010B96E6
:100450000E94E404892B09F4C5C0F60180819181D2
:10046000A2819C014A2F2F5F3F4F4F4F2083318342
:100470004283FC012491A7FD208120C0970140E028
:1004800050E060EF70E0CE010B960E94E404892BEF
:1004900009F4A8C0F60180819181A2810196A11D75
:1004A00080839183A2838B859C85892B31F400E026
:1004B00010E029E431E040E08CC028E7AE01455F60
:1004C0005F4FBE016F5F7F4FC4010E94140387C05E
:1004D000A501460D571D612F70E09701CE010B96C7
:1004E0000E9400007FC0612F70E0A701CE010B9633
:1004F0000E940000892B09F475C0F601808191816A
:10050000A2819C014A2F2F5F3F4F4F4F20833183A1
:100510004283FC012491A7FD2081AE01455F5F4F1E
:10052000BE016F5F7F4FC4010E94000058C01038A9
:1005300009F058C0F60180819181A2810196A11D28
:1005400080839183A283D701ED91FC911197CF0114
:1005500002968D939C93808126C0103809F042C08A
:10056000F60180819181A2810196A11D80839183F2
:10057000A283D701ED91FC911197CF0103968D9342
:100580009C9320813181428100E010E022C010382C
:1005900049F5F6012081318142812F5F3F4F4F4F56
:1005A0002083318342838B870EC085E28B87F601DF
:1005B0002082318242821A8219821E821D828FEF2E
:1005C0009FEF9C838B839E01255F3F4F40E801E0B6
:1005D00010E0BE016F5F7F4FC4010E9498098A0D31
:1005E0009B1D0AC0F60180819181A2810196A11D07
:1005F00080839183A283C5012E960FB6F894DEBF47
:100600000FBECDBFDF91CF911F910F91FF90EF9063
:10061000DF90CF90BF90AF909F908F907F906F9022
:080620004F903F902F900895C8
:10062800AFE0B0E0EAE1F3E00C94350B1C016B019C
:100638005A8349832B83FB0182819381848095802F
:10064800E080F180A680B78097FD03C0E894E1F8C8
:1006580002C081E090E0E981FA81408051806280A7
:1006680073809701207133273D832C838401E4FE36
:1006780007C0411451046104710411F002501109BA
:10068800F701E870FF27FF83EE83E3FE02C0015005
:100698001109F6010084F185E02D3197FF87EE8777
:1006A800EA0DFB1D10829C01201B310B398728871E
:1006B800C701827099279B878A87EB818E2FEE0F5F
:1006C800990B9C01215431093D872C872E853F8544
:1006D8002230310530F48C819D81892B09F041C08D
:1006E8005BC0411451046104710459F18E859F85E2
:1006F80001979F878E87C2018F7099278A3091054D
:1007080014F4C09602C0895A9F4FEC85FD857A97EC
:1007180048F49C012062215631092A31310510F430
:100728000E94C40BEE85FF85EA0DFB1D80830150F6
:10073800110984E076946794579447948A95D1F781
:10074800C5CF88859985800F911F1816190674F2F0
:10075800101611060CF0BFCFEA85FB85EF2B31F69A
:10076800BACFE981FA8180819181A281B381892BF5
:100778008A2B8B2B89F0EE85FF85EA0DFB1D3197BF
:100788002B8120838E859F8502979F878E87FC010A
:10079800EA0DFB1D80E38083EE81FF81EF2B59F08A
:1007A8002E853F85215031093F872E87F901EA0DB3
:1007B800FB1D80E28083F6012085318521503109B7
:1007C8008E859F85281B390B8A0D9B1DAC0160E81F
:1007D8008401C1010E9450079C01F101808191812F
:1007E80090FF06C0F60182819381821793070CF46B
:0A07F800C9012F96E2E10C94510BA9
:10080200A2E0B0E0E7E0F4E00C94350B4C016B01A0
:10081200FB0122813381A480B580808191819A83FA
:10082200898366807780FA012080318042805380FC
:10083200B201A10157FE07C044275527BA01421948
:1008420053096409750937FD03C08D7F9A83898333
:10085200950157FC05C0898182FD02C083FF02C059
:1008620021503109CE0101967C010AE010E0C60157
:100872000E94510557FC03C0298122FF0AC001973B
:10088200F301E80FF91F57FC02C02BE209C02DE269
:1008920007C023FF06C00197F301E80FF91F20E20A
:1008A2002083E980FA80F6012085318521503109C3
:1008B200281B390B860D971DAC0160E88501C40128
:1008C2000E9450079C01F4018081918190FF06C033
:1008D200F60182819381821793070CF4C901229653
:0608E200E2E10C94510B51
:1008E80017B836B128B181E090E002C0880F991F8F
:1008F8003A95E2F7822B88B9329B0EC0319B0CC027
:10090800309B0AC024EF30E040E060E081E00E94C4
:10091800450A0E94B206089532990EC0319B0CC058
:10092800309B0AC02CEF30E040E060E081E00E949C
:10093800450A0E949B070895329B0EC031990CC04E
:10094800309B0AC024E031E040E060E081E00E9492
:10095800450A0E947808089532990EC031990CC052
:10096800309B0AC02CE031E040E060E081E00E946A
:10097800450A0E94C0080895329B0EC0319B0CC0E6
:1009880030990AC024E131E040E060E081E00E9453
:10099800450A0E946206089532990EC0319B0CC028
:1009A80030990AC02CE131E040E060E081E00E942B
:1009B800450A0E940809089581E00E94D90A08950D
:1009C800CF93DF93DC01F90168387105F1F05CF42D
:1009D8006138710561F164387105C9F160387105D4
:1009E80009F056C034C0603C710561F1603F710583
:1009F80009F443C0603A710509F04AC0C081D18149
:100A0800CE010296918380832AC0C081D181CE0114
:100A1800029691838083452B39F04881042E000C7F
:100A2800550B660B770B21C0488150E02EC0C08162
:100A3800D181CE01049691838083488159816A814E
:100A48007B8113C0C081D181CE0102961AC0C081BA
:100A5800D181CE01029691838083452BA1F04881F4
:100A68005981052E000C660B770B4D935D936D93A2
:100A78007C93139781E090E00DC0C081D181CE01B5
:100A88000396918380834881598160E070E0EDCFBF
:0A0A980080E090E0DF91CF91089517
:100AA200A0E0B0E0E7E5F5E00C94370BDC012801AB
:100AB2001696AD90BC901797F7018081918112969E
:100AC200ED91FC9113971896CD91DC91199721978E
:100AD200F7FF02C0E1E0F0E0CA0DDB1D18826901F8
:100AE200A1E0B0E08F01021B130B4C01F2E08F2258
:100AF2009924052C000C66087708CE018A199B09F7
:100B0200CA15DB0519F1411551056105710589F019
:100B1200CB01BA01A30192010E94770ACA01A62F52
:100B2200B72F605D6A9341E0C41AD108A901BC01E4
:100B3200E4CF98012C0D3D1D121613064CF31C1424
:100B42001D0434F48114910419F702C080E090E08E
:100B5200AB2B31F4F701208131812F7E3183208349
:0A0B6200CDB7DEB7E0E10C94530BB1
:100B6C00A2E0B0E0ECEBF5E00C94390B5C016B010E
:100B7C00FB012281338184809580808191819A83CD
:100B8C0089836680778037FD03C08D7F9A83898344
:100B9C00FA014081518162817381CE0101967C0101
:100BAC0008E010E09401C6010E945105298124FF40
:100BBC0006C00197F301E80FF91F20E32083298178
:100BCC0023FF06C00197F301E80FF91F20E22083F1
:100BDC00E980FA80F6012085318521503109281BE6
:100BEC00390B860D971DAC0160E88401C5010E948C
:100BFC0050079C01F5018081918190FF06C0F601A0
:100C0C0082819381821793070CF4C9012296EEE03E
:040C1C000C94550BD4
:100C20006F927F928F92EF92FF920F931F93CF93C9
:100C3000DF93CDB7DEB761970FB6F894DEBF0FBE76
:100C4000CDBFFE01319651E1DF011D925A95E9F7C2
:100C5000A2E0B1E0BA83A9839C838B8377FF09C0AC
:100C60008FE490E090930101809300018FEF9FEF5C
:100C700019C03901842E7C01615071097F836E8314
:100C80009801682DA301CF010E946C0B48855985FE
:100C90002E813F814217530708F49A01F701E20FB2
:100CA000F31F108261960FB6F894DEBF0FBECDBF62
:100CB000DF91CF911F910F91FF90EF908F907F90D8
:040CC0006F90089594
:100CC4000F931F93CF93DF93CDB7DEB72A970FB659
:100CD400F894DEBF0FBECDBF00910601109107014D
:100CE4008091040190910501082B192B8091080132
:100CF40090910901080F191F80910201909103013D
:100D040080959095080F191F2AEE30E040E060E0CE
:100D140082E00E94450A1F930F9388EC90E0A0E0C4
:100D2400AF939F938F938E010F5F1F4F1F930F936A
:100D34000E949A0B980140E86DE082E00E94450A07
:100D44000FB6F894DEBF0FBECDBF2A960FB6F89447
:100D5400DEBF0FBECDBFDF91CF911F910F910895DC
:100D64000F931F93CF93DF93CDB7DEB72A970FB6B8
:100D7400F894DEBF0FBECDBF40910A0150910B0124
:100D84002091080130910901429FC001439F900DB9
:100D9400529F900D112400910201109103010095BE
:100DA4001095080F191F2BEC30E040E061E082E061
:100DB4000E94450A1F930F9388EC90E0A0E0AF9344
:100DC4009F938F938E010F5F1F4F1F930F930E946A
:100DD4009A0B980140E86DE082E00E94450A0FB644
:100DE400F894DEBF0FBECDBF2A960FB6F894DEBFCF
:0E0DF4000FBECDBFDF91CF911F910F910895DB
:100E0200CF92DF92EF92DC0190E0292F30E0220FA7
:100E1200331F6901032E000CEE086E2DA601445DFE
:100E22005E4F6F4F6A01E62EFA018491E7FC8081E2
:100E320081110DC02F5F3F4F032E000C440B245D28
:100E42003E4F4F4FF901849147FD808124C0CD90E0
:100E5200DD90EC901297F6014491E7FC40818413F7
:100E620015C02F5F3F4F032E000C440B245D3E4FF5
:100E72004F4FF901949147FD90815FEFC51AD50A52
:100E8200E50ACD92DD92EC92129701C09F5F9B30F2
:0E0E920008F4BBCF892FEF90DF90CF9008952A
:100EA0006F927F928F92AF92BF92CF92DF92EF922A
:100EB000FF920F931F93CF93DF935C013A01862E2D
:100EC000E901670181E0C822DD24E0FC03C02017AE
:100ED000310758F09E01682DA301C5010E94110A37
:100EE000C017D10710F0CE0118C07801EC1AFD0A26
:100EF000E114F10449F0B50180E290E00E942F086E
:100F000081E0E81AF108F4CFCD2831F49E01682D74
:100F1000A301C5010E94110AC801DF91CF911F9161
:100F20000F91FF90EF90DF90CF90BF90AF908F9098
:060F30007F906F90089510
:100F36000F931F93CF93DF93CDB7DEB72A970FB6E4
:100F4600F894DEBF0FBECDBF00910A0110910B01D0
:100F56008091060190910701080F191F80910201E7
:100F66009091030180959095080F191F27ED30E0A9
:100F760040E060E082E00E94450A1F930F9388ECF0
:100F860090E0A0E0AF939F938F938E010F5F1F4F6A
:100F96001F930F930E949A0B980140E86DE082E040
:100FA6000E94450A0FB6F894DEBF0FBECDBF2A9643
:100FB6000FB6F894DEBF0FBECDBFDF91CF911F9164
:040FC6000F910895EA
:100FCA00A3E8B0E0EBEEF7E00C943B0B5C014901BF
:100FDA00CF57DF4F488359836A83C158D040C12C09
:100FEA00D12CCF57DF4F2881C158D040CE57DF4F81
:100FFA009881C258D040CD57DF4F8881C358D0401E
:10100A00E22FF92F949187FD90819923E9F07401D9
:10101A00860120E830E0AE014F5F5F4FBE016F5797
:10102A007F4FC5010E94A8008C0D9D1D8C159D0542
:10103A004CF48FE490E090930101809300018FEFCC
:10104A009FEF03C06C01CDCFC601CD57DF4FECE057
:04105A000C94570B90
:10105E000F931F93CF93DF93DB012D913C9111974B
:10106E0030FF25C017964D915C91189715962D91CE
:10107E003C9116974217530778F41296ED91FC9116
:10108E001397808312962D913C9113972F5F3F4FAC
:10109E0013963C932E93129717962D913C91189779
:1010AE002F5F3F4F18963C932E93179715C01D96A2
:1010BE00ED91FC911E97309719F48FEF9FEF0CC0B6
:1010CE008B01EC010995892BC1F7F8018781908579
:1010DE00019690878783CE01DF91CF911F910F915B
:0210EE00089563
:1010F0000F931F93CF93DF93CDB7DEB72A970FB629
:10110000F894DEBF0FBECDBF00910601109107011C
:101110008091040190910501082B192B80910A01FF
:1011200090910B01080F191F20EE30E040E060E0C5
:1011300082E00E94450A1F930F9388EC90E0A0E0A4
:10114000AF939F938F938E010F5F1F4F1F930F934A
:101150000E949A0B980140E86DE082E00E94450AE7
:101160000FB6F894DEBF0FBECDBF2A960FB6F89427
:10117000DEBF0FBECDBFDF91CF911F910F910895BC
:101180000F931F93CF93DF93CDB7DEB72A970FB698
:10119000F894DEBF0FBECDBF00910601109107018C
:1011A0008091040190910501082B192B80910A016F
:1011B00090910B01080F191F20EE30E040E060E035
:1011C00082E00E94450A1F930F9388EC90E0A0E014
:1011D000AF939F938F938E010F5F1F4F1F930F93BA
:1011E0000E949A0B980140E86DE082E00E94450A57
:1011F0000FB6F894DEBF0FBECDBF2A960FB6F89497
:10120000DEBF0FBECDBFDF91CF911F910F9108952B
:101210000F931F93CF93DF93CDB7DEB72A970FB607
:10122000F894DEBF0FBECDBF0091060110910701FB
:101230008091040190910501082B192B80910801E0
:1012400090910901080F191F2AEE30E040E060E09C
:1012500082E00E94450A1F930F9388EC90E0A0E083
:10126000AF939F938F938E010F5F1F4F1F930F9329
:101270000E949A0B980140E86DE082E00E94450AC6
:101280000FB6F894DEBF0FBECDBF2A960FB6F89406
:10129000DEBF0FBECDBFDF91CF911F910F9108959B
:1012A000A2E0B0E0E6E5F9E00C94390B5C016B01DB
:1012B000FB012281338184809580808191819A8392
:1012C00089836680778037FD03C08D7F9A83898309
:1012D000FA014081518162817381CE0101967C01C6
:1012E0000AE010E09401C6010E945105E980FA80ED
:1012F000F6012085318521503109281B390B860DD7
:10130000971DAC0160E88401C5010E9450079C0153
:10131000F5018081918190FF06C0F6018281938161
:10132000821793070CF4C9012296EEE00C94550B3A
:101330006F927F928F92CF92DF92EF92FF920F93F4
:101340001F93CF93DF936C01FB013901842EC801F9
:10135000C281D38104811581E080F180232B242B6D
:1013600031F422E4622E21E0722E20E0822E0097DA
:1013700021F4882DB3010E94840BD7FD04C0C81747
:10138000D90708F4CE019C01682DA301C6010E9473
:101390005007DF91CF911F910F91FF90EF90DF9059
:0A13A000CF908F907F906F9008951A
:1013AA00DC012D913D914C911297F901849147FDF1
:1013BA0080818A3221F080E090E07AE011C02F5FCC
:1013CA003F4F4F4F2D933D934C93DB01ED91FC9191
:1013DA001197CF0102968D939C93808191810895F4
:1013EA002D913D914C911297F901549147FD5081ED
:1013FA0050535A3080F4789FF001799FF00D1124F0
:10140A00CF01850F911D2F5F3F4F4F4F2D933D9376
:08141A004C931297E5CF0895F1
:101422006F927F928F92CF92DF92EF920F931F93E0
:10143200CF93DF938C016A01E62EE9013A01862EF1
:10144200620E731E811C37FD8A94C614D704E80409
:1014520079F0F6018491E7FC8081B801082E000C36
:10146200990B0E942F088FEFC81AD80AE80AEDCF0D
:10147200CE01DF91CF911F910F91EF90DF90CF902E
:081482008F907F906F90089598
:10148A00CF92DF92EF926901E42E81110CC0603194
:10149A0028F5862F8F7080680E94D90A8E2DB60192
:1014AA000E94990A1BC0813061F46031B8F4862F1A
:1014BA008F70806C0E94D90A8E2DB6010E94990AFB
:1014CA000DC0823059F4603148F4862F8B708469DC
:1014DA000E94D90A8E2DB6010E94990AEF90DF90D8
:0414EA00CF90089502
:1014EE00A1E21A2EAA1BBB1BFD010DC0AA1FBB1F1A
:1014FE00EE1FFF1FA217B307E407F50720F0A21B8C
:10150E00B30BE40BF50B661F771F881F991F1A94F8
:10151E0069F760957095809590959B01AC01BD0122
:04152E00CF0108954C
:10153200CF92DF92EF92CF936B01E82EFB01849161
:10154200E7FC8081882379F0C0E00E94F80ACF5F2F
:10155200AE2DC6018C0F911DA11DFC018491A7FD2A
:1015620080818111F2CFCF91EF90DF90CF900895DB
:101572000E94170B24E231E040E060E070E080E07E
:1015820090E00E94450A2FEF80E792E021508040D0
:101592009040E1F700C000000E9474042FE788E346
:1015A20091E0215080409040E1F700C00000F4CF6C
:1015B2005A985998982F907F95B9589AEFECF7E07E
:1015C2003197F1F700C0000058988295807F85B965
:1015D200589A8FEC97E00197F1F700C000005898F5
:0E15E200EFECF7E03197F1F700C0000008953C
:1015F0005A9A5998982F907F95B9589AEFECF7E03E
:101600003197F1F700C0000058988295807F85B926
:10161000589A8FEC97E00197F1F700C000005898B6
:0E162000EFECF7E03197F1F700C000000895FD
:10162E008FEF84B98AB917B8589883E30E94D90A04
:10163E0082E30E94D90A88E20E94D90A8EE00E94B3
:10164E00D90A81E00E94D90A86E00E94D90A8FEC5D
:0C165E0097E00197F1F700C0000008952C
:10166A002F923F924F925F926F927F928F929F92A8
:10167A00AF92BF92CF92DF92EF92FF920F931F9396
:10168A00CF93DF93CDB7DEB7CA1BDB0B0FB6F89447
:08169A00DEBF0FBECDBF0994B5
:1016A2002A88398848885F846E847D848C849B84F0
:1016B200AA84B984C884DF80EE80FD800C811B81FE
:1016C200AA81B981CE0FD11D0FB6F894DEBF0FBE2D
:0616D200CDBFED010895FB
:1016D800A2E0B0E0E2E7FBE00C94430B8C013A8314
:1016E80029839E012F5F3F4F0E94E507F801208163
:1016F80024FF02C08FEF9FEF2296E4E00C945F0B6B
:10170800CF92DF92EF926B01E82EA82FCB01FC015C
:101718002491A7FD2081222319F00196A11DF7CF5E
:0C1728008C199D09EF90DF90CF90089580
:10173400A0E0B0E0E0EAFBE00C94450B9E01265FDC
:101744003F4F4F81588569858D819E810E94AD0BE5
:06175400E2E00C94610BC1
:10175A000F931F9389019A01462F6FEF7FE70E942B
:08176A0010061F910F91089574
:10177200EC010E94DA0B0E94D90BCE010E94DB0B16
:06178200CE010E94D70B0E
:101788009C01215631092A31310510F48F759927AA
:021798000895B2
:10179A009C01215431092A31310508F480620895E7
:0417AA000C9400009B
:0417AE000E94620033
:0217B200089598
:0217B400089596
:0217B600089594
:0217B800F0003F
:0217BA00060027
:0217BC00050026
:0217BE00040025
:0217C000030024
:00000001FF
